:100000000C9434000C9451000C9451000C94510049
:100010000C9451000C9451000C9451000C9451001C
:100020000C9451000C9451000C9451000C945B0200
:100030000C9451000C9451000C948E020C945100BD
:100040000C9451000C9451000C9451000C945100EC
:100050000C9451000C9451000C9451000C945100DC
:100060000C9451000C94510011241FBECFEFD4E02A
:10007000DEBFCDBF12E0A0E0B1E0ECEDF7E002C0E2
:1000800005900D92A034B107D9F712E0A0E4B2E0D8
:1000900001C01D92A737B107E1F70E9465020C94D9
:1000A000EC030C94000084B1836C84B987B18F6237
:1000B00087B98AB18C6F8AB90895382FFB012081E6
:1000C000442349F081E090E002C0880F991F3A95DF
:1000D000E2F7282B09C081E090E002C0880F991F49
:1000E0003A95E2F780952823208308952898299847
:1000F0002E982F9840984198429843985A985B9828
:100100005C985D985E985F9808951092480245E269
:1001100050E050934A024093490267E060934B02DB
:100120002BE230E030934D0220934C0296E0909306
:100130004E023093500220934F0285E0809351028B
:10014000309353022093520260935402509356020C
:10015000409355029093570250935902409358028E
:1001600084E080935A0230935C0220935B0273E038
:1001700070935D0230935F0220935E0262E06093B1
:100180006002309362022093610221E020936302B7
:1001900050936502409364021092660288E290E0F8
:1001A00090936802809367022093690290936B0298
:1001B00080936A0260936C0290936E0280936D024A
:1001C00070936F0290937102809370020895CF93A1
:1001D000DF93C1EFD1E089910E94D80382E0CB3355
:1001E000D807C9F7DF91CF910895BF92CF92DF92E0
:1001F000EF92FF920F931F93CF93DF93CFE5D1E060
:1002000089910E94D80341E0C439D407C9F70E94FC
:10021000D103B82E0E94D8030E94D103C82E0E9499
:10022000D8030E94D103E82E0E94D8030E94D10374
:10023000082F0E94D80310E0005D144184E6C89E98
:10024000600111240C0D1D1D8AE0E89E700111242F
:100250000E0D1F1D2B2D30E02053304088EE93E013
:10026000AC01249FC001259F900D349F900D112457
:10027000080F191FC801DF91CF911F910F91FF90B7
:10028000EF90DF90CF90BF900895BF92CF92DF9212
:10029000EF92FF920F931F93CF93DF93C4E9D1E0C6
:1002A00089910E94D80341E0C63CD407C9F70E9457
:1002B000D103B82E0E94D8030E94D103C82E0E94F9
:1002C000D8030E94D103E82E0E94D8030E94D103D4
:1002D000082F0E94D80310E0005D144184E6C89EF8
:1002E000600111240C0D1D1D8AE0E89E700111248F
:1002F0000E0D1F1D2B2D30E02053304088EE93E073
:10030000AC01249FC001259F900D349F900D1124B6
:10031000080F191FC801DF91CF911F910F91FF9016
:10032000EF90DF90CF90BF9008950F931F93CF93DE
:10033000DF93CFE2D1E089910E94D80381E0CF35ED
:10034000D807C9F70E94D103082F0E94D8030E9442
:10035000D103182F0E94D803212F30E020513240C2
:100360008AE0089F80011124200F311F83E0220FB3
:10037000331F8A95E1F7C901DF91CF911F910F914A
:1003800008950F931F93CF93DF93C0E0D1E089913D
:100390000E94D80381E0CF32D807C9F70E94D10369
:1003A000082F0E94D8030E94D103182F0E94D8035F
:1003B000212F30E0205132408AE0089F8001112433
:1003C000200F311F93E0220F331F9A95E1F7C901E7
:1003D000DF91CF911F910F910895AF92BF92CF926D
:1003E000DF92EF92FF920F931F93DF93CF93CDB7DE
:1003F000DEB72E970FB6F894DEBF0FBECDBF7C01DF
:10040000D62E06EC11E0F80181918F010E94D803ED
:10041000F1E0013F1F07B9F78D2D805D0E94D803E1
:100420008AE30E94D80380E20E94D8030E94D1038D
:10043000082F0E94D80310E001541040F801EE0F7D
:10044000FF1FE00FF11FDE011196E85BFD4F83E017
:1004500001900D928150E1F70E94C1015C010E9460
:1004600095016C010E94F5008C010E944501D701A5
:100470001896FE01319623E001900D922150E1F78C
:10048000F701B582A482D782C68213830283918347
:100490008083C7012E960FB6F894DEBF0FBECDBF86
:1004A000CF91DF911F910F91FF90EF90DF90CF9050
:1004B000BF90AF9008951F920F920FB60F92112424
:1004C0000F900FBE0F901F90189578940E945300C4
:1004D0000E94E0030E94E70022E024BD95E095BD64
:1004E0008AEF87BD20936E00209380009093810057
:1004F0008AEF90E0909389008093880020936F00AA
:100500008DE28093720280937302809374028093D1
:100510007502809376020E94D103FDCF1F920F9245
:100520000FB60F9211242F933F934F935F936F93C6
:100530007F938F939F93AF93BF93EF93FF9386B176
:1005400082958695877080FF0BC085E068E270E039
:1005500040E00E945D000E94760080913D02FEC056
:1005600085E068E270E041E00E945D004091420257
:100570005091430260E070E020E030E0CA01022EBA
:1005800002C0959587950A94E2F781709070680F84
:10059000791F2F5F3F4F2630310581F7E0914402EC
:1005A000F091450220E030E0CF01022E02C0959587
:1005B00087950A94E2F781709070680F791F2F5F1A
:1005C0003F4F2630310581F7663071055CF00E949F
:1005D000760010924302109242021092450210924D
:1005E0004402BAC0417080E065E270E00E945D00A4
:1005F000409142025091430256954795417087E0E1
:100600006BE270E00E945D00409142025091430213
:100610005695479556954795417086E06BE270E098
:100620000E945D004091420250914302B3E0569512
:100630004795BA95E1F7417085E06BE270E00E9462
:100640005D004091420250914302A4E056954795C7
:10065000AA95E1F7417087E065E270E00E945D00D5
:100660004091420250914302F5E056954795FA9524
:10067000E1F7417086E065E270E00E945D00409124
:10068000420250914302E6E056954795EA95E1F71C
:10069000417084E06BE270E00E945D004091440292
:1006A000417083E06BE270E00E945D004091440283
:1006B0005091450256954795417082E06BE270E09B
:1006C0000E945D0040914402509145025695479525
:1006D00056954795417081E065E270E00E945D00AB
:1006E000409144025091450233E0569547953A9522
:1006F000E1F7417080E068E270E00E945D004091A7
:1007000044025091450224E0569547952A95E1F719
:10071000417081E068E270E00E945D004091440217
:100720005091450295E0569547959A95E1F74170AD
:1007300082E068E270E00E945D00409144025091C6
:10074000450286E0569547958A95E1F7417083E02A
:1007500068E270E00E945D0080913B0287BDFF91DE
:10076000EF91BF91AF919F918F917F916F915F9129
:100770004F913F912F910F900FBE0F901F901895A2
:1007800080E090E0000001962FEF8D3D9207D1F7B9
:1007900008958091C000807808958091C000807293
:1007A00008958091C00087FFFCCF8091C600089516
:1007B000982F8091C00085FFFCCF9093C6000895CC
:1007C000519A1092C50089E18093C40088E180931A
:0C07D000C10080E090E00895F894FFCF95
:1007DC000D0A456E746572204F6E2D54696D65203F
:1007EC005B3120746F2033305D20286D7329202DF0
:1007FC002045783A203130206F722030323A200D6B
:10080C000A456E746572204F66662D54696D6520BD
:10081C005B3120746F2033305D20286D7329202DBF
:10082C002045783A203130206F722030323A200D3A
:10083C000A456E746572204475726174696F6E201E
:10084C005B31202D20353030305D20286D73292010
:10085C002D2045783A2030303031206F72203430E2
:10086C0030303A200D0A456E7465722044656C6117
:10087C0079205B31202D20353030305D20286D7390
:10088C0029202D2045783A2030303230206F7220CC
:10089C00323030303A200D0A456E7465722061207A
:1008AC0073696E676C65206D6F746F722028412DB3
:1008BC004E2920666F7220766962726174696F6E60
:1008CC00200D0A43686F6F7365204D6F746F722033
:1008DC005B412D4E3A204F6E3B20612D6E3A204FDE
:1008EC0066665D3B2027782720746F206368616EF5
:1008FC0067652074696D653B2027722720746F2013
:10090C00726561642074696D653A202800280000C6
:00000001FF
