:100000000C9434000C9451000C9451000C94510049
:100010000C9451000C9451000C9451000C9451001C
:100020000C9451000C9451000C9451000C94DD037D
:100030000C9451000C9451000C9497050C945100B1
:100040000C9451000C9451000C9451000C945100EC
:100050000C9451000C9451000C9451000C945100DC
:100060000C9451000C94510011241FBECFEFD4E02A
:10007000DEBFCDBF12E0A0E0B1E0EEEEFDE002C0D9
:1000800005900D92A034B107D9F713E0A0E4B2E0D7
:1000900001C01D92A133B107E1F70E946F050C94D6
:1000A000F5060C94000084B1836C84B987B18F622B
:1000B00087B98AB18C6F8AB90895382FFB012081E6
:1000C000442349F081E090E002C0880F991F3A95DF
:1000D000E2F7282B09C081E090E002C0880F991F49
:1000E0003A95E2F780952823208308952898299847
:1000F0002E982F9840984198429843985A985B9828
:100100005C985D985E985F98089510924A0225E287
:1001100030E030934C0220934B0281E680934D02F5
:1001200067E060934E024BE250E0509350024093E0
:100130004F0282E68093510296E0909352025093D0
:1001400054024093530283E68093550285E08093E6
:100150005602509358024093570284E68093590206
:1001600060935A0230935C0220935B0285E6809391
:100170005D0290935E023093600220935F0286E6F8
:100180008093610284E08093620250936402409302
:10019000630287E68093650273E070936602509372
:1001A00068024093670288E68093690262E0609388
:1001B0006A0250936C0240936B0289E680936D0251
:1001C00091E090936E023093700220936F028AE662
:1001D000809371021092720228E230E03093740230
:1001E000209373028BE6809375029093760230938E
:1001F0007802209377028CE68093790260937A02EA
:1002000030937C0220937B028DE680937D02709375
:100210007E023093800220937F028EE680938102DB
:1002200010928202509384024093830288E7809365
:1002300085020895CF93DF93C1EFD1E089910E94A9
:10024000E10682E0CB33D807C9F7DF91CF9108955B
:10025000BF92CF92DF92EF92FF920F931F93CF93B3
:10026000DF93CFE5D1E089910E94E10641E0C439F6
:10027000D407C9F70E94DA06B82E0E94E1060E9450
:10028000DA06C82E0E94E1060E94DA06E82E0E94D5
:10029000E1060E94DA06082F0E94E10610E0005DE8
:1002A000144184E6C89E600111240C0D1D1D8AE0D6
:1002B000E89E700111240E0D1F1D2B2D30E02053E0
:1002C000304088EE93E0AC01249FC001259F900D43
:1002D000349F900D1124080F191FC801DF91CF9191
:1002E0001F910F91FF90EF90DF90CF90BF900895F6
:1002F000BF92CF92DF92EF92FF920F931F93CF9313
:10030000DF93C4E9D1E089910E94E10641E0C63C57
:10031000D407C9F70E94DA06B82E0E94E1060E94AF
:10032000DA06C82E0E94E1060E94DA06E82E0E9434
:10033000E1060E94DA06082F0E94E10610E0005D47
:10034000144184E6C89E600111240C0D1D1D8AE035
:10035000E89E700111240E0D1F1D2B2D30E020533F
:10036000304088EE93E0AC01249FC001259F900DA2
:10037000349F900D1124080F191FC801DF91CF91F0
:100380001F910F91FF90EF90DF90CF90BF90089555
:100390000F931F93CF93DF93CFE2D1E089910E9417
:1003A000E10681E0CF35D807C9F70E94DA06082FA9
:1003B0000E94E1060E94DA06182F0E94E106212F12
:1003C00030E0205132408AE0089F80011124200F44
:1003D000311F83E0220F331F8A95E1F7C901DF91B6
:1003E000CF911F910F9108950F931F93CF93DF9398
:1003F000C0E0D1E089910E94E10681E0CF32D807C8
:10040000C9F70E94DA06082F0E94E1060E94DA0668
:10041000182F0E94E106212F30E0205132408AE05F
:10042000089F80011124200F311F93E0220F331FFA
:100430009A95E1F7C901DF91CF911F910F9108952E
:100440006F927F928F929F92AF92BF92CF92DF92E4
:10045000EF92FF920F931F93DF93CF93CDB7DEB749
:100460002E970FB6F894DEBF0FBECDBF6C01F62EEF
:1004700006EC11E0F80181918F010E94E106F1E0A4
:10048000013F1F07B9F78F2D805D0E94E1068AE3C7
:100490000E94E10680E20E94E1060E94DA06082F2F
:1004A00010E0015410400E30110508F50E94E106DD
:1004B000F801EE0FFF1FEE0FFF1FE65BFD4F1081EF
:1004C0000181F280E3800E94F4014C010E94C80186
:1004D0003C010E9478015C010E9428019C012A0DC8
:1004E0003B1DF60112870387F486E58615C08091CF
:1004F000820290918302A0918402B0918502F6015C
:1005000082879387A487B58720E030E080E090E081
:100510006624772488249924F6019182808273824C
:100520006282B186A0869783868335832483C60141
:100530002E960FB6F894DEBF0FBECDBFCF91DF91E0
:100540001F910F91FF90EF90DF90CF90BF90AF90F1
:100550009F908F907F906F900895662309F483C0D9
:100560008734910509F457C088349105D4F4833455
:10057000910509F440C08434910544F48134910517
:1005800071F18234910509F017C12FC085349105AE
:10059000D1F1209142023091430286349105CCF58D
:1005A00030C08B34910509F446C08C3491055CF45D
:1005B00089349105C1F120914402309145028A3479
:1005C0009105BCF52EC08D34910509F440C08D34E1
:1005D0009105BCF18E34910509F0EEC03EC08091CA
:1005E0004202909143028160AEC08091420290919C
:1005F00043028260A8C080914202909143028460CD
:10060000A2C0286095C0809142029091430280610F
:100610009AC020628DC08091420290914302806412
:1006200092C02160A1C080914402909145028260F5
:10063000B4C0246099C080914402909145028860C2
:10064000ACC080914402909145028061A6C0809127
:100650004402909145028062A0C080914402909132
:10066000450280649AC08734910509F466C08834D5
:100670009105E4F48334910509F447C0843491056D
:1006800044F48134910599F18234910509F094C0C4
:1006900035C08534910509F442C020914202309161
:1006A0004302863491050CF041C036C08B3491056D
:1006B00009F45FC08C3491056CF48934910509F418
:1006C0004AC020914402309145028A3491050CF0D1
:1006D00049C03EC08D34910509F459C08D3491054F
:1006E0000CF44EC08E34910509F066C05BC0809159
:1006F0004202909143028E7F907025C08091420209
:10070000909143028D7F90701EC080914202909123
:1007100043028B7F907017C0277F307009C0809193
:100720004202909143028F7E90700DC02F7D3070F9
:1007300030934302209342020895809142029091A7
:1007400043028F7B907090934302809342020895FE
:100750002E7F307009C080914402909145028D7FB8
:1007600090701BC02B7F3070309345022093440261
:1007700008958091440290914502877F90700DC04A
:1007800080914402909145028F7E907006C08091C6
:100790004402909145028F7D907090934502809322
:1007A0004402089580914402909145028F7B90709D
:1007B000909345028093440208951F920F920FB6C2
:1007C0000F9211242F933F934F935F936F937F93D7
:1007D0008F939F93AF93BF93CF93DF93EF93FF9349
:1007E00080912F039091300309970CF076C080918F
:1007F000090390910A0342970CF06FC0C6E8D2E05B
:1008000080912F039091300309970CF066C0E0911E
:100810000903F0910A03E231F1050CF05EC0EE0F1E
:10082000FF1FE55FFC4F20813181888599854D85CB
:1008300028173907E1F4842F90E061E00E94AD02AF
:100840008881998173E0880F991F7A95E1F79093D9
:100850003C0280933B028A819B8163E0880F991F51
:100860006A95E1F790933E0280933D0205C0842F84
:1008700090E060E00E94AD02A0910903B0910A03EC
:10088000FD01EE0FFF1FE55FFC4F2081318180915C
:10089000460290914702280F391F30934702209358
:1008A00046021196B0930A03A0930903AA0FBB1F37
:1008B000A55FBC4F8D919C91821B930B23E0880F09
:1008C000991F2A95E1F790938900809388002E96CE
:1008D00083E0C430D80709F093CFFF91EF91DF9107
:1008E000CF91BF91AF919F918F917F916F915F91C8
:1008F0004F913F912F910F900FBE0F901F90189521
:100900002F923F924F925F926F927F928F929F921F
:10091000AF92BF92CF92DF92EF92FF920F931F930D
:10092000DF93CF93CDB7DEB72E970FB6F894DEBF27
:100930000FBECDBF76E8A72E72E0B72E6BE0862EF5
:1009400063E0962E8401CC24DD241E010894211C32
:10095000311C76010894E11CF11CC101B7010E9411
:1009600020028F81988559844A847D806E8000970B
:10097000A9F4C601880F991F9C0143E0220F331F81
:100980004A95E1F7281B390B2A573D4FFC01E55FDB
:10099000FC4FA6018E010F5F1F4F3DC098878F83CC
:1009A00059864A867D826E82D501F1018EE00190E2
:1009B0000D928150E1F7D8015C9211964C921197FB
:1009C00012967C92129713966C92EEE0F0E0AE0EC7
:1009D000BF1E0E5F1F4FF9E0EF16F10401F1670132
:1009E000B8CF18861F8259864A867D826E82B901E9
:1009F00078018EE0D7010D907D01DB010D92BD01E4
:100A00008150C1F7118210824F5F5F4F13821282B3
:100A1000225F3F4F3296493051051CF3760188E042
:100A200090E08E199F099093300380932F03880FD5
:100A3000991F90930A038093090310924702109222
:100A4000460200E010E040E050E060E070E028C0C6
:100A5000E55FFC4F208131818D919C911197281782
:100A600039070CF48A014F5F5F4F1296F801EE0FC1
:100A7000FF1F4231510564F3D4012D913C91119730
:100A8000E55FFC4F808191818D939D934D01318372
:100A900020836F5F7F4FAB018B016231710531F0B5
:100AA000DA01AA0FBB1FA55FBC4FE0CF2E960FB691
:100AB000F894DEBF0FBECDBFCF91DF911F910F9194
:100AC000FF90EF90DF90CF90BF90AF909F908F906E
:100AD0007F906F905F904F903F902F900895789403
:100AE0000E9453000E94E90622E024BD95E095BDD6
:100AF0008AEF87BD20936E0081E080938000909301
:100B000081008AEF90E09093890080938800209381
:100B10006F008DE2809304038093050380930603A6
:100B200080930703809308030E948004FDCF1F92E7
:100B30000F920FB60F9211242F933F934F935F9311
:100B40006F937F938F939F93AF93BF93EF93FF9395
:100B500086B182958695877080FF0BC085E068E23C
:100B600070E040E00E945D000E94760080913D02AE
:100B7000FEC085E068E270E041E00E945D004091C7
:100B800042025091430260E070E020E030E0CA0190
:100B9000022E02C0959587950A94E2F781709070B5
:100BA000680F791F2F5F3F4F2630310581F7E091A5
:100BB0004402F091450220E030E0CF01022E02C055
:100BC000959587950A94E2F781709070680F791F68
:100BD0002F5F3F4F2630310581F7663071055CF09D
:100BE0000E94760010924302109242021092450237
:100BF00010924402BAC0417080E065E270E00E9449
:100C00005D004091420250914302569547954170D4
:100C100087E06BE270E00E945D00409142025091DB
:100C200043025695479556954795417086E06BE28D
:100C300070E00E945D00409142025091430273E0D7
:100C4000569547957A95E1F7417085E06BE270E043
:100C50000E945D00409142025091430264E056952B
:100C600047956A95E1F7417087E065E270E00E9480
:100C70005D00409142025091430235E05695479500
:100C80003A95E1F7417086E065E270E00E945D0010
:100C9000409142025091430226E0569547952A958D
:100CA000E1F7417084E06BE270E00E945D004091EA
:100CB0004402417083E06BE270E00E945D0040916D
:100CC00044025091450256954795417082E06BE28F
:100CD00070E00E945D00409144025091450256959B
:100CE000479556954795417081E065E270E00E9416
:100CF0005D004091440250914502B3E056954795FE
:100D0000BA95E1F7417080E068E270E00E945D0012
:100D10004091440250914502A4E056954795AA950A
:100D2000E1F7417081E068E270E00E945D0040916F
:100D3000440250914502F5E056954795FA95E1F742
:100D4000417082E068E270E00E945D0040914402E0
:100D500050914502E6E056954795EA95E1F74170D6
:100D600083E068E270E00E945D0080913B0287BDF5
:100D7000FF91EF91BF91AF919F918F917F916F9173
:100D80005F914F913F912F910F900FBE0F901F9049
:100D9000189580E090E0000001962FEF8D3D9207BE
:100DA000D1F708958091C000807808958091C000A7
:100DB000807208958091C00087FFFCCF8091C600AB
:100DC0000895982F8091C00085FFFCCF9093C600B6
:100DD0000895519A1092C50089E18093C40088E17A
:0E0DE0008093C10080E090E00895F894FFCF6A
:100DEE000D0A456E746572204F6E2D54696D652027
:100DFE005B3120746F2033305D20286D7329202DD8
:100E0E002045783A203130206F722030323A200D52
:100E1E000A456E746572204F66662D54696D6520A5
:100E2E005B3120746F2033305D20286D7329202DA7
:100E3E002045783A203130206F722030323A200D22
:100E4E000A456E746572204475726174696F6E2006
:100E5E005B31202D20353030305D20286D732920F8
:100E6E002D2045783A2030303031206F72203430CA
:100E7E0030303A200D0A456E7465722044656C61FF
:100E8E0079205B31202D20353030305D20286D7378
:100E9E0029202D2045783A2030303230206F7220B4
:100EAE00323030303A200D0A456E74657220612062
:100EBE0073696E676C65206D6F746F722028412D9B
:100ECE004E2920666F7220766962726174696F6E48
:100EDE00200D0A43686F6F7365204D6F746F72201B
:100EEE005B412D4E3A204F6E3B20612D6E3A204FC6
:100EFE0066665D3B2027782720746F206368616EDD
:100F0E0067652074696D653B2027722720746F20FA
:100F1E00726561642074696D653A202800280000AE
:00000001FF
