:100000000C9434000C9451000C9451000C94510049
:100010000C9451000C9451000C9451000C9451001C
:100020000C9451000C9451000C9451000C94DD037D
:100030000C9451000C9451000C941C050C9451002C
:100040000C9451000C9451000C9451000C945100EC
:100050000C9451000C9451000C9451000C945100DC
:100060000C9451000C94510011241FBECFEFD4E02A
:10007000DEBFCDBF12E0A0E0B1E0E8EFFCE002C0DF
:1000800005900D92A034B107D9F713E0A0E4B2E0D7
:1000900001C01D92AF32B107E1F70E94F5040C9444
:1000A0007A060C94000084B1836C84B987B18F62A6
:1000B00087B98AB18C6F8AB90895382FFB012081E6
:1000C000442349F081E090E002C0880F991F3A95DF
:1000D000E2F7282B09C081E090E002C0880F991F49
:1000E0003A95E2F780952823208308952898299847
:1000F0002E982F9840984198429843985A985B9828
:100100005C985D985E985F9808951092480225E289
:1001100030E030934A022093490281E680934B02FB
:1001200067E060934C024BE250E050934E024093E4
:100130004D0282E680934F0296E0909350025093D6
:1001400052024093510283E68093530285E08093EC
:100150005402509356024093550284E6809357020E
:100160006093580230935A022093590285E6809397
:100170005B0290935C0230935E0220935D0286E600
:1001800080935F0284E08093600250936202409308
:10019000610287E68093630273E070936402509378
:1001A00066024093650288E68093670262E060938E
:1001B000680250936A024093690289E680936B0259
:1001C00091E090936C0230936E0220936D028AE668
:1001D00080936F021092700228E230E03093720236
:1001E000209371028BE68093730290937402309394
:1001F0007602209375028CE68093770260937802F2
:1002000030937A02209379028DE680937B0270937B
:100210007C0230937E0220937D028EE680937F02E3
:1002200010928002509382024093810288E780936B
:1002300083020895CF93DF93C1EFD1E089910E94AB
:10024000660682E0CB33D807C9F7DF91CF910895D6
:10025000BF92CF92DF92EF92FF920F931F93CF93B3
:10026000DF93CFE5D1E089910E94660641E0C43971
:10027000D407C9F70E945F06B82E0E9466060E9446
:100280005F06C82E0E9466060E945F06E82E0E9446
:1002900066060E945F06082F0E94660610E0005D59
:1002A000144184E6C89E600111240C0D1D1D8AE0D6
:1002B000E89E700111240E0D1F1D2B2D30E02053E0
:1002C000304088EE93E0AC01249FC001259F900D43
:1002D000349F900D1124080F191FC801DF91CF9191
:1002E0001F910F91FF90EF90DF90CF90BF900895F6
:1002F000BF92CF92DF92EF92FF920F931F93CF9313
:10030000DF93C4E9D1E089910E94660641E0C63CD2
:10031000D407C9F70E945F06B82E0E9466060E94A5
:100320005F06C82E0E9466060E945F06E82E0E94A5
:1003300066060E945F06082F0E94660610E0005DB8
:10034000144184E6C89E600111240C0D1D1D8AE035
:10035000E89E700111240E0D1F1D2B2D30E020533F
:10036000304088EE93E0AC01249FC001259F900DA2
:10037000349F900D1124080F191FC801DF91CF91F0
:100380001F910F91FF90EF90DF90CF90BF90089555
:100390000F931F93CF93DF93CFE2D1E089910E9417
:1003A000660681E0CF35D807C9F70E945F06082F9F
:1003B0000E9466060E945F06182F0E946606212F83
:1003C00030E0205132408AE0089F80011124200F44
:1003D000311F83E0220F331F8A95E1F7C901DF91B6
:1003E000CF911F910F9108950F931F93CF93DF9398
:1003F000C0E0D1E089910E94660681E0CF32D80743
:10040000C9F70E945F06082F0E9466060E945F06D9
:10041000182F0E946606212F30E0205132408AE0DA
:10042000089F80011124200F311F93E0220F331FFA
:100430009A95E1F7C901DF91CF911F910F9108952E
:100440006F927F928F929F92AF92BF92CF92DF92E4
:10045000EF92FF920F931F93DF93CF93CDB7DEB749
:100460002E970FB6F894DEBF0FBECDBF6C01F62EEF
:1004700006EC11E0F80181918F010E946606F1E01F
:10048000013F1F07B9F78F2D805D0E9466068AE342
:100490000E94660680E20E9466060E945F06082FA0
:1004A00010E0015410400E30110508F50E94660658
:1004B000F801EE0FFF1FEE0FFF1FE85BFD4F1081ED
:1004C0000181F280E3800E94F4014C010E94C80186
:1004D0003C010E9428015C010E9478019C012A0DC8
:1004E0003B1DF60112870387F486E58615C08091CF
:1004F000800290918102A0918202B0918302F60164
:1005000082879387A487B58720E030E080E090E081
:100510006624772488249924F6019182808273824C
:100520006282B186A0869783868335832483C60141
:100530002E960FB6F894DEBF0FBECDBFCF91DF91E0
:100540001F910F91FF90EF90DF90CF90BF90AF90F1
:100550009F908F907F906F900895662309F483C0D9
:100560008734910509F457C088349105D4F4833455
:10057000910509F440C08434910544F48134910517
:1005800071F18234910509F017C12FC085349105AE
:10059000D1F1209142023091430286349105CCF58D
:1005A00030C08B34910509F446C08C3491055CF45D
:1005B00089349105C1F120914402309145028A3479
:1005C0009105BCF52EC08D34910509F440C08D34E1
:1005D0009105BCF18E34910509F0EEC03EC08091CA
:1005E0004202909143028160AEC08091420290919C
:1005F00043028260A8C080914202909143028460CD
:10060000A2C0286095C0809142029091430280610F
:100610009AC020628DC08091420290914302806412
:1006200092C02160A1C080914402909145028260F5
:10063000B4C0246099C080914402909145028860C2
:10064000ACC080914402909145028061A6C0809127
:100650004402909145028062A0C080914402909132
:10066000450280649AC08734910509F466C08834D5
:100670009105E4F48334910509F447C0843491056D
:1006800044F48134910599F18234910509F094C0C4
:1006900035C08534910509F442C020914202309161
:1006A0004302863491050CF041C036C08B3491056D
:1006B00009F45FC08C3491056CF48934910509F418
:1006C0004AC020914402309145028A3491050CF0D1
:1006D00049C03EC08D34910509F459C08D3491054F
:1006E0000CF44EC08E34910509F066C05BC0809159
:1006F0004202909143028E7F907025C08091420209
:10070000909143028D7F90701EC080914202909123
:1007100043028B7F907017C0277F307009C0809193
:100720004202909143028F7E90700DC02F7D3070F9
:1007300030934302209342020895809142029091A7
:1007400043028F7B907090934302809342020895FE
:100750002E7F307009C080914402909145028D7FB8
:1007600090701BC02B7F3070309345022093440261
:1007700008958091440290914502877F90700DC04A
:1007800080914402909145028F7E907006C08091C6
:100790004402909145028F7D907090934502809322
:1007A0004402089580914402909145028F7B90709D
:1007B000909345028093440208951F920F920FB6C2
:1007C0000F9211242F933F934F935F936F937F93D7
:1007D0008F939F93AF93BF93CF93DF93EF93FF9349
:1007E00080912D0390912E0309970CF070C0809199
:1007F00007039091080342970CF069C0C4E8D2E067
:1008000080912D0390912E0309970CF060C0E09128
:100810000703F0910803E231F1050CF058C0EE0F28
:10082000FF1FE75FFC4F20813181888599854D85C9
:100830002817390729F5842F90E061E00E94AD0266
:100840008091070390910803019690930803809389
:1008500007038881998153E0880F991F5A95E1F722
:1008600090933C0280933B028A819B8143E0880FF6
:10087000991F4A95E1F790933E0280933D020EC086
:10088000842F90E060E00E94AD0280910703909178
:10089000080301969093080380930703E0910703F0
:1008A000F0910803EE0FFF1FE75FFC4F80819181FD
:1008B00023E0880F991F2A95E1F790938900809390
:1008C00088002E9683E0C230D80709F099CFFF91B7
:1008D000EF91DF91CF91BF91AF919F918F917F91D8
:1008E0006F915F914F913F912F910F900FBE0F909D
:1008F0001F901895AF92BF92CF92DF92EF92FF9226
:100900000F931F93DF93CF93CDB7DEB72E970FB61C
:10091000F894DEBF0FBECDBFA4E8CA2EA2E0DA2E47
:10092000EE24FF245E010894A11CB11C87010F5F17
:100930001F4FC501B8010E9420028F819885009742
:1009400091F4C701880F991F9C01E3E0220F331F28
:10095000EA95E1F7281B390B2C573D4FA701BE0143
:100960006F5F7F4F1FC098878F83D601F5018EE0A0
:1009700001900D928150E1F78EE090E0C80ED91EF3
:100980000930110599F07801D1CF18861F82D9015D
:10099000FB018EE001900D928150E1F74F5F5F4FB8
:1009A000225F3F4F4930510584F3870188E090E092
:1009B000801B910B90932E0380932D03880F991F1A
:1009C00090930803809307032E960FB6F894DEBF2A
:1009D0000FBECDBFCF91DF911F910F91FF90EF9090
:1009E000DF90CF90BF90AF90089578940E9453000D
:1009F0000E946E0622E024BD95E095BD8AEF87BD7A
:100A000020936E0020938000909381008AEF90E005
:100A1000909389008093880020936F008DE28093EB
:100A20000203809303038093040380930503809360
:100A300006030E947A04FDCF1F920F920FB60F9209
:100A400011242F933F934F935F936F937F938F93D3
:100A50009F93AF93BF93EF93FF9386B18295869553
:100A6000877080FF0BC085E068E270E040E00E9484
:100A70005D000E94760080913D02FEC085E068E244
:100A800070E041E00E945D004091420250914302BB
:100A900060E070E020E030E0CA01022E02C09595CF
:100AA00087950A94E2F781709070680F791F2F5F25
:100AB0003F4F2630310581F7E0914402F091450225
:100AC00020E030E0CF01022E02C0959587950A9470
:100AD000E2F781709070680F791F2F5F3F4F2630CB
:100AE000310581F7663071055CF00E947600109246
:100AF0004302109242021092450210924402BAC080
:100B0000417080E065E270E00E945D004091420229
:100B10005091430256954795417087E06BE270E033
:100B20000E945D00409142025091430256954795C4
:100B300056954795417086E06BE270E00E945D003B
:100B40004091420250914302A3E056954795AA95E1
:100B5000E1F7417085E06BE270E00E945D0040913A
:100B6000420250914302F4E056954795FA95E1F719
:100B7000417087E065E270E00E945D0040914202B2
:100B800050914302E5E056954795EA95E1F74170AB
:100B900086E065E270E00E945D0040914202509163
:100BA000430276E0569547957A95E1F7417084E0E7
:100BB0006BE270E00E945D0040914402417083E06E
:100BC0006BE270E00E945D0040914402509145024A
:100BD00056954795417082E06BE270E00E945D009F
:100BE0004091440250914502569547955695479538
:100BF000417081E065E270E00E945D004091440236
:100C00005091450223E0569547952A95E1F74170AA
:100C100080E068E270E00E945D00409144025091E3
:100C2000450294E0569547959A95E1F7417081E029
:100C300068E270E00E945D004091440250914502DC
:100C400085E0569547958A95E1F7417082E068E224
:100C500070E00E945D004091440250914502B6E070
:100C600056954795BA95E1F7417083E068E270E0E8
:100C70000E945D0080913B0287BDFF91EF91BF9183
:100C8000AF919F918F917F916F915F914F913F9124
:100C90002F910F900FBE0F901F90189580E090E05D
:100CA000000001962FEF8D3D9207D1F708958091B6
:100CB000C000807808958091C0008072089580916E
:100CC000C00087FFFCCF8091C6000895982F8091C7
:100CD000C00085FFFCCF9093C6000895519A1092F2
:100CE000C50089E18093C40088E18093C10080E061
:080CF00090E00895F894FFCF95
:100CF8000D0A456E746572204F6E2D54696D65201E
:100D08005B3120746F2033305D20286D7329202DCE
:100D18002045783A203130206F722030323A200D49
:100D28000A456E746572204F66662D54696D65209C
:100D38005B3120746F2033305D20286D7329202D9E
:100D48002045783A203130206F722030323A200D19
:100D58000A456E746572204475726174696F6E20FD
:100D68005B31202D20353030305D20286D732920EF
:100D78002D2045783A2030303031206F72203430C1
:100D880030303A200D0A456E7465722044656C61F6
:100D980079205B31202D20353030305D20286D736F
:100DA80029202D2045783A2030303230206F7220AB
:100DB800323030303A200D0A456E74657220612059
:100DC80073696E676C65206D6F746F722028412D92
:100DD8004E2920666F7220766962726174696F6E3F
:100DE800200D0A43686F6F7365204D6F746F722012
:100DF8005B412D4E3A204F6E3B20612D6E3A204FBD
:100E080066665D3B2027782720746F206368616ED3
:100E180067652074696D653B2027722720746F20F1
:100E2800726561642074696D653A202800280000A5
:00000001FF
