:100000000C9462000C947F000C947F000C947F0091
:100010000C947F000C947F000C947F000C947F0064
:100020000C947F000C947F000C947F000C947F0054
:100030000C947F000C947F000C94A9020C947F0018
:100040000C947F000C947F000C947F000C947F0034
:100050000C947F000C947F000C947F000C947F0024
:100060000C947F000C947F00E301E901F301F90196
:10007000FF0105020B02110217021D0223022902D1
:100080002F023502A002A002A002A002A002A0023C
:10009000A002A002A002A002A002A002A002A00250
:1000A000A002A002A002A0023B02420249025002AA
:1000B00057025E0265026C0273027A0281028802B4
:1000C0008F02960211241FBECFEFD4E0DEBFCDBF5A
:1000D00011E0A0E0B1E0E0E6F8E002C005900D928A
:1000E000A23DB107D9F711E0A2EDB1E001C01D9228
:1000F000AF3DB107E1F70E94C1000C942E040C94AF
:10010000000084B1836C84B987B18F6287B98AB1EA
:100110008C6F8AB90895382FFB012081442349F060
:1001200081E090E002C0880F991F3A95E2F7282BF2
:1001300009C081E090E002C0880F991F3A95E2F76C
:100140008095282320830895289829982E982F9801
:1001500040984198429843985A985B985C985D986B
:100160005E985F980895CF93DF93C0E0D1E08991C6
:100170000E94F30381E0CA34D807C9F7DF91CF9119
:1001800008952F923F924F925F926F927F928F923B
:100190009F92AF92BF92DF92EF92FF920F931F93C5
:1001A000DF93CF93CDB7DEB7C058D0400FB6F894E9
:1001B000DEBF0FBECDBF78940E9481000E94FB037A
:1001C0000E94B30092E094BD85E085BD8AEF87BDB3
:1001D00090936E008DE28093DA018093DB0180932F
:1001E000DC018093DD018093DE0171E1672E712CCB
:1001F0006C0E7D1E62E2A62EB12CAC0EBD1E51E52A
:10020000852E912C8C0E9D1E4FE2242E312C2A0C13
:100210003B1C30E3432E512C480C591C0E94EC032C
:10022000182F883709F05BC0D501EAE4F1E08FE2CE
:1002300001900D928150E1F7D401EAE7F1E080E30B
:1002400001900D928150E1F78501F80181918F01B4
:100250000E94F30302151305C1F70E94EC03D82E88
:100260000E94F3030E94EC03F82E0E94F303840122
:10027000F80181918F010E94F30304151505C1F760
:100280000E94EC03E82E0E94F3030E94EC03082F67
:100290000E94F3038F2D90E0805192404AE0D49E5B
:1002A00090011124820F931F23E0880F991F2A9534
:1002B000E1F79093CF018093CE0110E000511240FE
:1002C000E49E700111240E0D1F1D83E0000F111F0D
:1002D0008A95E1F71093D1010093D00137C182379D
:1002E00009F05EC0DE011196EBEAF1E080E10190D9
:1002F0000D928150E1F78E010F5F1F4FF801819140
:100300008F010E94F30306151705C1F78091CE01F6
:100310009091CF0168E070E00E940704162F072F2C
:10032000862F972F6AE070E00E940704862F805D79
:100330000E94F303812F902F6AE070E00E9407046F
:10034000805D0E94F303D301ECEBF1E081E10190C9
:100350000D928150E1F78301F80181918F010E9494
:10036000F3030A151B05C1F78091D0019091D101CB
:1003700068E070E00E940704162F072F862F972F42
:100380006AE070E00E940704862F805D0E94F303FC
:10039000812F902F6AE070E00E940704805DD4C036
:1003A0000E94F303812F90E0FC01E154F040EE3213
:1003B000F10508F0C5C0EC5CFF4FEE0FFF1F059084
:1003C000F491E02D09948091D4019091D501816040
:1003D00005C08091D4019091D50182609093D501A0
:1003E0008093D401ADC08091D4019091D5018460F7
:1003F000F5CF8091D4019091D5018860EFCF8091A5
:10040000D4019091D5018061E9CF8091D401909180
:10041000D5018062E3CF8091D4019091D5018064B1
:10042000DDCF8091D6019091D701816085C0809108
:10043000D6019091D70182607FC08091D6019091C2
:10044000D701846079C08091D6019091D7018860EE
:1004500073C08091D6019091D70180616DC0809169
:10046000D6019091D701806267C08091D6019091AA
:10047000D701806461C08091D4019091D5018E7FB5
:100480009070ACCF8091D4019091D5018D7F907008
:10049000A5CF8091D4019091D5018B7F90709ECF94
:1004A0008091D4019091D501877F907097CF8091F2
:1004B000D4019091D5018F7E907090CF8091D4011E
:1004C0009091D5018F7D907089CF8091D4019091CA
:1004D000D5018F7B907082CF8091D6019091D7010A
:1004E0008E7F907029C08091D6019091D7018D7F29
:1004F000907022C08091D6019091D7018B7F90702F
:100500001BC08091D6019091D701877F907014C055
:100510008091D6019091D7018F7E90700DC080910F
:10052000D6019091D7018F7D907006C08091D60141
:100530009091D7018F7B90709093D7018093D601D3
:100540008DE00E94F3038AE00E94F3030E94B3004F
:1005500065CE1F920F920FB60F9211242F933F93E7
:100560004F935F936F937F938F939F93AF93BF93BB
:10057000EF93FF9386B182958695877080FF0BC0BD
:1005800085E068E270E040E00E948B000E94A400D9
:100590008091D001FEC085E068E270E041E00E94F9
:1005A0008B004091D4015091D50160E070E020E0D3
:1005B00030E0CA01022E02C0959587950A94E2F7B1
:1005C00081709070680F791F2F5F3F4F2630310583
:1005D00081F7E091D601F091D70120E030E0CF0122
:1005E000022E02C0959587950A94E2F7817090706B
:1005F000680F791F2F5F3F4F2630310581F7663036
:1006000071055CF00E94A4001092D5011092D401F3
:100610001092D7011092D601BAC0417080E065E215
:1006200070E00E948B004091D4015091D501569505
:100630004795417087E06BE270E00E948B0040912B
:10064000D4015091D50156954795569547954170DF
:1006500086E06BE270E00E948B004091D4015091E3
:10066000D50173E0569547957A95E1F7417085E09D
:100670006BE270E00E948B004091D4015091D50153
:1006800064E0569547956A95E1F7417087E065E229
:1006900070E00E948B004091D4015091D50135E06B
:1006A000569547953A95E1F7417086E065E270E02E
:1006B0000E948B004091D4015091D50126E05695BF
:1006C00047952A95E1F7417084E06BE270E00E9463
:1006D0008B004091D601417083E06BE270E00E9494
:1006E0008B004091D6015091D701569547954170A6
:1006F00082E06BE270E00E948B004091D601509145
:10070000D7015695479556954795417081E065E22A
:1007100070E00E948B004091D6015091D701B3E068
:1007200056954795BA95E1F7417080E068E270E030
:100730000E948B004091D6015091D701A4E05695BC
:100740004795AA95E1F7417081E068E270E00E9468
:100750008B004091D6015091D701F5E05695479511
:10076000FA95E1F7417082E068E270E00E948B0048
:100770004091D6015091D701E6E056954795EA950C
:10078000E1F7417083E068E270E00E948B008091A5
:10079000CE0187BDFF91EF91BF91AF919F918F9156
:1007A0007F916F915F914F913F912F910F900FBE6D
:1007B0000F901F90189580E090E0000001962FEFB9
:1007C0008D3D9207D1F708958091C00080780895FB
:1007D0008091C000807208958091C00087FFFCCF97
:1007E0008091C6000895982F8091C00085FFFCCFAE
:1007F0009093C6000895519A1092C50089E18093A4
:10080000C40088E18093C10080E090E0089597FBE8
:10081000092E07260AD077FD04D00CD006D0002080
:100820001AF4709561957F4F0895F6F7909581952C
:100830009F4F0895AA1BBB1B51E107C0AA1FBB1FF6
:10084000A617B70710F0A61BB70B881F991F5A955C
:10085000A9F780959095BC01CD010895F894FFCF3C
:100860000D0A43686F6F7365204D6F746F72205B64
:10087000412D4E3A204F6E3B20612D6E3A204F663F
:10088000665D3B2027782720746F206368616E6760
:10089000652074696D653B2027722720746F207274
:1008A0006561642074696D653A200D0A456E746552
:1008B00072204F6E2D54696D65205B3120746F205E
:1008C00033305D20286D7329202D2045783A203162
:1008D00030206F722030323A20000D0A456E746568
:1008E00072204F66662D54696D65205B3120746FF0
:1008F0002033305D20286D7329202D2045783A2043
:100900003130206F722030323A20000D0A4F6E20B5
:1009100054696D6520286D73293A20000D0A4F66D1
:10092000662054696D6520286D73293A20002800DF
:0209300028009D
:00000001FF
